
:100000000257B90A78C678EABC0F78C2BC0FBC5751
:1000100004000C00BC570200BC5793FFBC9FBCF708
:100020000E18C2FF8C0F0300210049004F009452AC
:10003000FEFF0100FFFFBC971F18BCF71B00F0E498
:10004000BC971F183ECFAA92FEFF3C5501005E5799
:100050000D003AFE024F1300040045004D00490018
:100060005400A88A00FEBC970A20BC970A20BC97BF
:100070000A20BC970A20BC970A20BC970A20BC978C
:100080000A20BC970A20BC970A20BC970A200A20A5
:100090000A2078FABC0F2C0003004B0045005900E1
:1000A000BC57FFFFBC975518520007200A20BC9789
:1000B0005B183C5580000A20BC9760183C558000B6
:1000C0000A20BC9765183C5580000A20BC976A1826
:1000D0003C5580000A20BC976F183C5580000A20D0
:1000E000BC9774183C5580000A20BC9779183C5581
:1000F00080000A20BC977E183C5580001455FF00F4
:10010000FF0078AABC0F4C00050064006F004C0093
:1001100049005400784ABC0F840004004500580090
:100120004900540052C77CE08D000700450058008C
:10013000450043005500540045007CE09500060052
:100140004200520041004E0043004800525F7CE0F4
:100150009F00070051004200520041004E00430042
:100160004800B4107EFA024FFAFA024FA9000600C6
:1001700064006F004E00450058005400AEC2FFFFFF
:10018000C318FAE2024F7EFA024FB70001002100C5
:100190003ACF3A7E024FC600010040003ACF3A5EA5
:1001A000024FCC00020052003E0078C2BC0FD200C9
:1001B000020052004000B8C6024FD80002003E00C4
:1001C000520078E2BC0FDE000400440052004F00F1
:1001D000500078FABC0FE4000300440055005000C2
:1001E00078D2BC0FEC0004005300570041005000CF
:1001F0003ACF70E652C77CE0F30004004F0056008F
:100200004500520038CF70D73ACE024FFD000200B1
:1002100030003C00BC8F0F1992FAFFFF7CE012D532
:100220007CE00701030041004E00440078AABC0FA7
:10023000120102004F005200208760C5024F1901D1
:10024000030058004F00520078A2BC0F20010300A9
:1002500055004D002B00BCBF301978520100BC0F77
:10026000A8D6024F2701430074006D0070000520DE
:100270000000330104005300500041004E000520EF
:1002800000003A0103003E0049004E000520000036
:1002900042010400230054004900420005200000F0
:1002A000003F4901030043005300500005200000B7
:1002B0005201050027004500560041004C00052072
:1002C0003A085901070027004E0055004D00420032
:1002D00045005200052025056201030048004C003E
:1002E0004400052000006D010700480041004E0059
:1002F00044004C0045005200052000007401070036
:1003000043004F004E0054004500580054000520A3
:10031000E4010000000000000000000000000000F8
:1003200000007F01070043005500520052004500C5
:100330004E0054000520E401000092010200430039
:1003400050000520930C9E0104004C004100530016
:10035000540005207E0CA401040027005400410035
:10036000500005206E07AC01050027004500430042
:1003700048004F0005203100B4010700270050005D
:1003800052004F004D005000540005206708BD0189
:100390000400420041005300450005200A00C80146
:1003A00005004E0055004C004C00240005200000C4
:1003B000D001050056004F004300410042000520D7
:1003C0000000D901050046004F00520054004800CB
:1003D0000220DF018701C8009200E20104003F0013
:1003E0004400550050000220F000B100F801F00078
:1003F0009200EE01030052004F0054000220E10081
:10040000F800D500F8009200FA010500320044001F
:1004100052004F0050000220E900E900920005025E
:100420000400320044005500500002200201020185
:100430009200100201002B0002202B01E900920023
:100440001A0203004E004F00540002208A00FFFFF2
:1004500024019200210206004E00450047004100A1
:1004600054004500022025028A0001001C0292006F
:100470002B02070044004E00450047004100540095
:10048000450002202502E10025028A0001002B011F
:10049000D5001C029200390201002D000220320218
:1004A0001C0292004C020300410042005300022053
:1004B000F0000A01B1005D02320292005302010015
:1004C0003D0002202401B10068028A000000920071
:1004D0008A00FFFF92005F02020055003C000220EC
:1004E000150224010A01B1007902F800E9000A01AD
:1004F00092004E020A0192006C0201003C000220B0
:10050000150224010A01B1008802E9000A019200E3
:100510004E020A0192007D0203004D004100580086
:10052000022015027F02B1009602F800E900920055
:100530008C0203004D0049004E0002201502F80015
:100540007F02B100A402F800E900920099020600BF
:10055000570049005400480049004E0002200201A3
:100560004E02E1004E02D5006F029200A702060083
:1005700055004D002F004D004F0044000220150291
:100580006F02B100E90232028A000F00E100E100CF
:10059000F0002B01E100E100F0002B01D5001C026E
:1005A000F000D500DB00F800E1002B01D5001C01B4
:1005B000B100E202E100E9008A0001001C02D5005E
:1005C000A600E302E900D500BE00C702E900F8007A
:1005D0009200E9000B028A00FFFFF0009200B702D0
:1005E00005004D002F004D004F0044000220F00098
:1005F0000A01F000E100B10001033202E100410212
:10060000D500E100F0000A01B1000803DB001C0284
:10061000D500BE02D500B1001003F8003202F80088
:100620009200F00204002F004D004F004400022011
:1006300002010A01F800F6029200120303004D00C5
:100640004F00440002201703E90092001E0301003E
:100650002F0002201703F800E9009200270303008F
:1006600055004D002A0002208A000000F8008A0090
:100670000F00E100F0002B01E100E100F0002B0190
:10068000D5001C02D500B1004A03E10002012B0194
:10069000D5001C02BE003A03FE01E90092002F03C0
:1006A00001002A0002203303E900920050030200F7
:1006B0004D002A000220150224010A01E100570220
:1006C000F80057023303D500B100670341029200DE
:1006D000570305002A002F004D004F004400022060
:1006E000E1005A03D500F6029200690302002A00D5
:1006F0002F0002206F03F800E90092007603050046
:10070000430045004C004C002D0002208A00FFFFF2
:100710001C0292007F030500430045004C004C0082
:100720002B0002208A0001001C0292008B030200B1
:1007300042004C0002208A0020009200970305002E
:100740003E00430048004100520002208A007F0022
:100750001601F0008A007F009A03AE02B100B303D5
:10076000E9008A005F0092009F0302002B00210035
:100770000220F8000201CE001C02F800C80092001E
:10078000B5030200320021000220F8000201C80077
:100790009103C8009200C103020032004000022011
:1007A000F0009103CE00F800CE009200CC030500CB
:1007B00043004F0055004E0054000220F0008A0014
:1007C00001001C02F800CE009200D703040048008C
:1007D0004500520045000220A101CE009200E60330
:1007E00003005000410044000220EB038A00500047
:1007F0001C029200F0030300540049004200022052
:100800004E019103CE009200FB030800400045001A
:100810005800450043005500540045000220CE001A
:10082000F301B10014049D0092000504050043008B
:100830004D004F00560045000220E100A6002804AC
:10084000E100F000CE00DB00C8009103D500910369
:10085000BE0020040B02920016040400460049006A
:100860004C004C000220F800E100F800A6003B0418
:100870001502C8009103BE0038040B0292002D043B
:1008800005005000410043004B0024000220F0000E
:10089000E1001502C8009103F8001C04D500920085
:1008A000400405004400490047004900540002206C
:1008B0008A00090002017F028A00070016011C025B
:1008C0008A0030001C0292005104070045005800C5
:1008D0005400520041004300540002208A000000EE
:1008E000F800BE02F80057049200650402003C00C4
:1008F00023000220F4037101C80092007604040072
:1009000048004F004C00440002207101CE008503D6
:10091000F0007101C800C80092007F0401002300AC
:100920000220CD01CE006D04840492008E040200EA
:100930002300530002209004F000B100A104A6009F
:100940009B049200970404005300490047004E00A6
:1009500002200A01B100AF048A002D008404920035
:10096000A304020023003E000220E9007101CE0032
:10097000F40302014E029200B104030073007400FC
:1009800072000220F000E100570279049A04D500B9
:10099000A804B4049200BD040300480045005800B8
:1009A00002208A001000CD01C8009200CC0407008C
:1009B00044004500430049004D0041004C00022026
:1009C0008A000A00CD01C8009200D7040600440046
:1009D00049004700490054003F000220E1008A001E
:1009E00030004E028A00090002017F02B1000005BA
:1009F0008A0007004E02F0008A000A007F021C01F4
:100A0000F000D5006F029200E60407004E0055008A
:100A10004D004200450052003F000220CD01CE00B3
:100A2000E1008A0000000201DD030201CE008A001D
:100A300024006102B1002105D004F8009103F80000
:100A400085030201CE008A002D006102E100F8005A
:100A5000DB004E02F800DB001C02F301B10052057E
:100A60008503E100F000E100CE00CD01CE00ED04F1
:100A7000B1004B05F800CD01CE0052031C02D50099
:100A80009103BE003205E900DB00B10048053202E7
:100A9000F800A6005105D500D5000B020B028A0014
:100AA0000000F000D5000B02D500CD01C800920077
:100AB000050504003F004B0045005900022050008E
:100AC0008A00FFFF920059050400500041004300D6
:100AD000450002208A000B003100920064050500E9
:100AE0005300500041004300450002209A033100AA
:100AF00092006F050500430048004100520053007A
:100B00000220F8008A0000009002E100A6008A0599
:100B1000F0003100BE008805E90092007A05060069
:100B200053005000410043004500530002209A0347
:100B3000800592008F0504005400590050004500C4
:100B40000220E100A600A705DD03A5033100BE00D9
:100B5000A405E90092009B05020043005200022018
:100B60008A000D0031008A000A0031009200AC05B5
:100B7000430064006F0024000220D500DB00D50094
:100B8000DD031C02E100F800E1009200B80543001B
:100B9000240022007C000220BC059200C70543000F
:100BA0002E0022007C000220BC05DD03A00592007F
:100BB000CF0502002E0052000220E100C104D50042
:100BC00002014E029605A0059200D90503005500CA
:100BD0002E0052000220E10079049A04B404D500EA
:100BE00002014E029605A0059200E605020055009E
:100BF0002E00022079049A04B4047505A005920021
:100C0000F60501002E000220CD01CE008A000A0068
:100C10002401B1000D06F9059200C1047505A00577
:100C20009200010601003F000220CE000306920060
:100C30001206070028007000610072007300650052
:100C4000290002203701C8000201E100F000B100D4
:100C5000660685033701CE009A036102B1004306A0
:100C6000E1009A030201CE004E020A012502B10002
:100C700042069103BE003106D500E9008A0000005B
:100C8000F0009200D5000201F800E1003701CE002B
:100C90000201CE004E023701CE009A036102B1007C
:100CA00052060A01B1005B069103BE004606F00041
:100CB000E100A6006006D500E900F0009103E10024
:100CC00002014E02D500D5004E0292000201D5006D
:100CD0004E029200190605005000410052005300D8
:100CE00045000220E100FF034601CE001C024E0138
:100CF000CE004601CE004E02D50021064601B803C3
:100D000092006B060400430048004100520002209C
:100D10009A037106E900CE00920082060500540095
:100D20004F004B0045004E0002209A0371068A00D6
:100D30001F009D02EB039103460492008E060400FF
:100D400057004F005200440002207106EB0391034C
:100D5000460492009F0605004E0041004D004500EC
:100D60003E000220DD038A001F0016011C029200D3
:100D7000AB060500530041004D0045003F00022036
:100D8000E100A600D2060201DB001C02CE00020137
:100D9000DB001C02CE004E02F301B100D206D500EA
:100DA000E9009200BE00C3068A0000009200B90666
:100DB0000400660069006E0064000220F800F00084
:100DC000CE003701C800F000CE00E1009103F8002A
:100DD000CE00F000B1000007F000CE008A003F0016
:100DE0001601DB002401B100FA0691038A00FFFF1F
:100DF000A600FE0691033701CE00BF06A600060737
:100E0000D500E900F8008503F8009200B1000C0756
:100E100085038503A600E806D500E900F800E9008F
:100E20008503F000B106F8009200D80605004E00D8
:100E300041004D0045003F0002208701CE00DD0645
:100E40009200160702005E0048000220E100020145
:100E5000D500F80002012401B1003A078A00080019
:100E6000BA010E0485039A03BA010E048A00080031
:100E7000BA010E0492002207030054004100500002
:100E80000220F000BA010E040201C8009103920092
:100E90003C0704006B005400410050000220F000A9
:100EA0008A000D002401B10060078A0008002401B7
:100EB000B1005E079A034007A6005F07250792006E
:100EC000E900F800E900F00092004907060061001F
:100ED00063006300650070007400022002011C02C0
:100EE000020115022401B10085075000F0009A03A9
:100EF0004E028A005F006F02B10081074007A60022
:100F00008307B1010E04A6007107E90002014E0239
:100F10009200660706004500580050004500430057
:100F2000540002206D073F01C800E90092008A07C3
:100F30000500510055004500520059000220FF03F2
:100F40008A0050006D074E01C800E9008A000000C9
:100F50004601C800920000000000000000000000F0
:100F60000000000000000000000000000000000081
:100F70000000000000000000000000000000000071
:100F80000000000000000000000000000000000061
:100F90000000000000000000000000000000000051
:100FA0000000000000000000000000000000000041
:100FB0000000000000000000000000000000000031
:100FC0000000000000000000000000000000000021
:100FD0000000000000000000000000000000000011
:100FE0000000000000000000000000000000000001
:100FF00000000000000000000000000000000000F1
:101000000257000078C678EABC0F78C200080000DA
:1010100098070500410042004F0052005400022092
:10102000D6010E04920009084600610062006F00BC
:101030007200740022000220B1002208BC05DD030A
:10104000A0050F08BC05E900920014080500450042
:10105000520052004F00520002207505DD03A0052A
:1010600075058A003F0031000F08920026080A002B
:10107000240049004E005400450052005000520028
:101080004500540002201C07F301B1005B08CE00AC
:101090008A00400016011B080C0063006F006D0001
:1010A000700069006C00650020006F006E006C002D
:1010B00079009D0092000D05B1005F0892002C0898
:1010C0009200370881005B0002208A0042085F011D
:1010D000C8009200620803002E004F004B0002205F
:1010E0008A0042085F01CE006102B1007C08D3058E
:1010F000030020006F006B00AF0592006B08040036
:101100004500560041004C0002209406F000CE003D
:10111000B1008E085F010E04A6008508E900C50134
:101120000E0492007F080600500052004500530054
:101130004500540002208A00003F4E019103C80080
:101140009200930804005100550049005400022009
:101150009A0864089E078408A600AA089200A208BC
:1011600001002700022094061C07B100B808920075
:10117000D30501003F000F089200B00805004100B0
:101180004C004C004F0054000220A101B803920013
:10119000BE0801002C000220EB03F0009103A10126
:1011A000C800C8009200C90889005B0043004F00D6
:1011B0004D00500049004C0045005D000220B2087F
:1011C000CB089200D408470043004F004D00500068
:1011D00049004C0045000220D500F000CE00CB08AD
:1011E0009103E1009200E30887004C00490054009D
:1011F0004500520041004C0002208A008A00CB08C2
:10120000CB089200F408030024002C0022000220E6
:101210008A002200A406CE009103C40892000309AC
:10122000870052004500430055005200530045001E
:101230000220A901CE00B106CB08920010090700D8
:101240003F0055004E004900510055004500022066
:10125000F0001C07B10038097505D30506007200BF
:10126000650044006500660020000201DD03A00562
:10127000E90092001F09030024002C006E000220E8
:10128000F000CE00B10054092709F000DD031C0274
:10129000A101C800F000A901C80085039A01CE0091
:1012A000CE00F800C8009200D30504006E00610073
:1012B0006D0065000F0892003B0908002400430000
:1012C0004F004D00500049004C00450002201C0713
:1012D000F301B1007609CE008A0080001601B1004A
:1012E00074099D00A6007509CB0892000D05B10098
:1012F0007B09FC0892002C0892005D0905004F0054
:1013000056004500520054000220A901CE009A0167
:10131000CE00C80092007E09C1003B000220EB080D
:1013200092006408840992008C0901005D0002208B
:101330008A0066095F01C8009200950901003A0021
:10134000022094063F098A000220CB0897099200E8
:101350009E09040043004F0044004500022094060B
:101360003F0984099200A9090400440055004D007A
:10137000500002208A0008002903E100AF05F000B8
:10138000F905750575058A000800E100A600CB097E
:10139000DD03A5033100BE00C8098A0008004E0223
:1013A0008A00020096058A000800E100A600DA091A
:1013B000DD03F905BE00D809BE00BE09E9009200B0
:1013C000B40905003E004E0041004D0045000220DA
:1013D0009A019103CE00F301B100050A1502CE0077
:1013E000F000B100FB091502B1062401B100FB09B0
:1013F0008503A600EF09F800E900F301B100E9094F
:10140000F800E900F800E9009200E9008A00000015
:101410009200E10903002E00490044000220DD0390
:101420008A001F001601A00592000A0A030053005B
:10143000450045000220B208AF058A001000E10017
:101440009103F000CE00E709F301B1002B0A750506
:101450000E0AA6002E0AF000CE00F905BE00200AF2
:1014600050008A000D006102B1001C0AE9009200E0
:10147000160A050057004F00520044005300022096
:10148000AF058701CE00CE00F301B1004D0AF00098
:1014900075050E0A8503A600430A9200390A030067
:1014A00056004500520002208A00010192004F0AB6
:1014B00042006800690002201700D004AF05D30580
:1014C0000B00500038002000650046006F007200DD
:1014D0007400680020007600530A79049004900498
:1014E0008A002E0084049004B404A005AF05DF0434
:1014F0009200580A050045004D0050005400590064
:1015000002208A00F80BA101C8008A00E30BA901A0
:10151000C8008A00E30BDF01C800E8018701CE00A4
:10152000F0009A01C40392007A0A050027004200E5
:101530004F004F00540005205B0A950A0500530038
:10154000540041005200540002208A003100BA01C8
:10155000C8008A004E07B101C8008A006F08C501A3
:10156000C800A70892009E0A040043004F004C00E8
:10157000440002209B0A0E04800A8A00A40AD601B5
:10158000C8008A000D056A01C800A40A9200B40AC6
:1015900005003C004D00410052004B000220EB03CF
:1015A0009200C80A08003C005200450053004F005A
:1015B0004C00560045000220CB089200D20A0500DC
:1015C0003E004D00410052004B000220EB038A0018
:1015D0000000CB089200DF0A08003E0052004500E0
:1015E00053004F004C00560045000220CE0AF80080
:1015F000C8009200EC0A830046004F00520002200F
:10160000EB08E100CE0A9200FB0A8500420045008B
:10161000470049004E000220CE0A9200050B8400CC
:101620004E004500580054000220EB08BE00DB0AC3
:1016300092000F0B850055004E00540049004C00ED
:101640000220EB08B100DB0A92001A0B8500410072
:101650004700410049004E000220EB08A600DB0ACB
:101660009200260B8200490046000220EB08B100E0
:10167000E50A9200320B8500410048004500410018
:1016800044000220EB08A600E50A92003B0B86000E
:1016900052004500500045004100540002202C0B30
:1016A000F50A9200470B84005400480045004E00A4
:1016B0000220F50A9200530B8300410046005400BB
:1016C0000220E900410B0B0BF80092005C0B840038
:1016D00045004C00530045000220410BF800580B18
:1016E0009200670B84005700480045004E0002201E
:1016F000350B02019200720B85005700480049002B
:101700004C0045000220350BF80092007C0B86004F
:10171000410042004F005200540022000220EB081A
:101720008E0B07099200870B820024002200022002
:10173000EB08CB0507099200940B82002E002200D3
:101740000220EB08D305070992009D0B0600430019
:10175000520045004100540045000220AE098A00B5
:101760000520CB089200A60B08005600410052004D
:101770004900410042004C0045000220AE098A00A9
:101780000520CB088A000000CB089200B40B820031
:101790002E00280002208A0029007106A005920070
:1017A000C70B81005C0002204E01CE004601C8003C
:1017B0009200D10B8100280002208A0029007106C6
:1017C0000B029200DA0B090049004D004D00450064
:1017D0004400490041005400450002208A00800076
:1017E000A901CE00CE001C01A901CE00C8009200C4
:1017F00000000000000000000000000000000000E9
:1018000000000000000000000000000000000000D8
:1018100000000000000000000000000000000000C8
:1018200000000000000000000000000000000000B8
:101E00000000040043004F004D004D007882BC0FDD
:101E1000010F0300530048004C00788ABC0F090FE3
:101E200003005300480052007892BC0F100F0400CA
:101E300050004C005500530078BABC0F170F050036
:101E40004D0049004E0055005300D485010078BA7A
:101E5000BC0F1F0F03004E0045004700AE8201007B
:101E6000024F2A0F030049004E004300D2550100E3
:101E70007CE0320F0300440045004300D255FFFFD1
:101E80007CE03A0F06005000530054004F0052000F
:101E900045003ACFFC5D3A7E024F420F05005500E7
:101EA0004C00450053005300AE820100BCBF5A1FD6
:101EB00012D57CE092FAFFFF7CE04E0F04005A003E
:101EC000450051005500661712D57CE092FAFFFFDD
:101ED0007CE05E0F050045005100550041004C00BC
:101EE000BCA7741712D57CE092FAFFFF7CE06A0F62
:101EF00005004400440052004F005000D2FF7CE037
:101F0000780F0400440044005500500038CF70D7CB
:101F100032D73AC6024F810F0700280043004F0016
:101F200055004E00540029003ACF324F3AC6024FB6
:101F300000000000000000000000000000000000A1
:101F40000000000000000000000000000000000091
:101F50000000000000000000000000000000000081
:101F60000000000000000000000000000000000071
:101F70000000000000000000000000000000000061
:101F80000000000000000000000000000000000051
:101F90000000000000000000000000000000000041
:101FA0000000000000000000000000000000000031
:101FB0000000000000000000000000000000000021
:101FC0000000000000000000000000000000000011
:101FD0000000000000000000000000000000000001
:101FE00000000000000000000000000000000000F1
:101FF00000000000000000000000000000000000E1
:00000001FF
